{
  "address": "0xe7f1725E7734CE288F8367e1Bb143E90bb3F0512",
  "abi": [
    {
      "inputs": [
        {
          "internalType": "address",
          "name": "priceFeedAddress",
          "type": "address"
        }
      ],
      "stateMutability": "nonpayable",
      "type": "constructor"
    },
    {
      "inputs": [],
      "name": "FundMe__NotOwner",
      "type": "error"
    },
    {
      "stateMutability": "payable",
      "type": "fallback"
    },
    {
      "inputs": [],
      "name": "MINIMUM_USD",
      "outputs": [
        {
          "internalType": "uint256",
          "name": "",
          "type": "uint256"
        }
      ],
      "stateMutability": "view",
      "type": "function"
    },
    {
      "inputs": [],
      "name": "cheaperWithdraw",
      "outputs": [],
      "stateMutability": "payable",
      "type": "function"
    },
    {
      "inputs": [],
      "name": "fund",
      "outputs": [],
      "stateMutability": "payable",
      "type": "function"
    },
    {
      "inputs": [
        {
          "internalType": "address",
          "name": "funder",
          "type": "address"
        }
      ],
      "name": "getAddressToAmountFunded",
      "outputs": [
        {
          "internalType": "uint256",
          "name": "",
          "type": "uint256"
        }
      ],
      "stateMutability": "view",
      "type": "function"
    },
    {
      "inputs": [
        {
          "internalType": "uint256",
          "name": "index",
          "type": "uint256"
        }
      ],
      "name": "getFunder",
      "outputs": [
        {
          "internalType": "address",
          "name": "",
          "type": "address"
        }
      ],
      "stateMutability": "view",
      "type": "function"
    },
    {
      "inputs": [],
      "name": "getOwner",
      "outputs": [
        {
          "internalType": "address",
          "name": "",
          "type": "address"
        }
      ],
      "stateMutability": "view",
      "type": "function"
    },
    {
      "inputs": [],
      "name": "getPriceFeed",
      "outputs": [
        {
          "internalType": "contract AggregatorV3Interface",
          "name": "",
          "type": "address"
        }
      ],
      "stateMutability": "view",
      "type": "function"
    },
    {
      "inputs": [],
      "name": "s_priceFeed",
      "outputs": [
        {
          "internalType": "contract AggregatorV3Interface",
          "name": "",
          "type": "address"
        }
      ],
      "stateMutability": "view",
      "type": "function"
    },
    {
      "inputs": [],
      "name": "withdraw",
      "outputs": [],
      "stateMutability": "payable",
      "type": "function"
    },
    {
      "stateMutability": "payable",
      "type": "receive"
    }
  ],
  "transactionHash": "0xee8081918509d2b0f11ecc739dd69ae6148de7f9b1b6de1f8f5c879328bfe6eb",
  "args": [
    "0x5FbDB2315678afecb367f032d93F642f64180aa3"
  ],
  "numDeployments": 1,
  "solcInputHash": "bafe95b93528832e32e97e33e3ebe5c3",
  "bytecode": "0x60806040523480156200001157600080fd5b50604051620012d4380380620012d483398181016040528101906200003791906200012a565b33600260006101000a81548173ffffffffffffffffffffffffffffffffffffffff021916908373ffffffffffffffffffffffffffffffffffffffff16021790555080600360006101000a81548173ffffffffffffffffffffffffffffffffffffffff021916908373ffffffffffffffffffffffffffffffffffffffff160217905550506200015c565b600080fd5b600073ffffffffffffffffffffffffffffffffffffffff82169050919050565b6000620000f282620000c5565b9050919050565b6200010481620000e5565b81146200011057600080fd5b50565b6000815190506200012481620000f9565b92915050565b600060208284031215620001435762000142620000c0565b5b6000620001538482850162000113565b91505092915050565b611168806200016c6000396000f3fe60806040526004361061008a5760003560e01c8063893d20e811610059578063893d20e8146101405780639e87a5cd1461016b578063b60d428814610196578063be2693f0146101a0578063d7b4750c146101aa57610099565b80630343fb25146100a35780630ec3b027146100e05780633ccfd60b1461010b5780636b69a5921461011557610099565b36610099576100976101e7565b005b6100a16101e7565b005b3480156100af57600080fd5b506100ca60048036038101906100c59190610aa0565b610321565b6040516100d79190610ae6565b60405180910390f35b3480156100ec57600080fd5b506100f5610369565b6040516101029190610b60565b60405180910390f35b61011361038f565b005b34801561012157600080fd5b5061012a6105d1565b6040516101379190610ae6565b60405180910390f35b34801561014c57600080fd5b506101556105de565b6040516101629190610b8a565b60405180910390f35b34801561017757600080fd5b50610180610608565b60405161018d9190610b60565b60405180910390f35b61019e6101e7565b005b6101a8610632565b005b3480156101b657600080fd5b506101d160048036038101906101cc9190610bd1565b610872565b6040516101de9190610b8a565b60405180910390f35b6802b5e3af16b1880000610226600360009054906101000a900473ffffffffffffffffffffffffffffffffffffffff16346108ba90919063ffffffff16565b1015610267576040517f08c379a000000000000000000000000000000000000000000000000000000000815260040161025e90610c5b565b60405180910390fd5b346000803373ffffffffffffffffffffffffffffffffffffffff1673ffffffffffffffffffffffffffffffffffffffff16815260200190815260200160002060008282546102b59190610caa565b925050819055506001339080600181540180825580915050600190039060005260206000200160009091909190916101000a81548173ffffffffffffffffffffffffffffffffffffffff021916908373ffffffffffffffffffffffffffffffffffffffff160217905550565b60008060008373ffffffffffffffffffffffffffffffffffffffff1673ffffffffffffffffffffffffffffffffffffffff168152602001908152602001600020549050919050565b600360009054906101000a900473ffffffffffffffffffffffffffffffffffffffff1681565b600260009054906101000a900473ffffffffffffffffffffffffffffffffffffffff1673ffffffffffffffffffffffffffffffffffffffff163373ffffffffffffffffffffffffffffffffffffffff1614610416576040517f579610db00000000000000000000000000000000000000000000000000000000815260040160405180910390fd5b60005b6001805490508110156104c15760006001828154811061043c5761043b610d00565b5b9060005260206000200160009054906101000a900473ffffffffffffffffffffffffffffffffffffffff16905060008060008373ffffffffffffffffffffffffffffffffffffffff1673ffffffffffffffffffffffffffffffffffffffff168152602001908152602001600020819055505080806104b990610d2f565b915050610419565b50600067ffffffffffffffff8111156104dd576104dc610d78565b5b60405190808252806020026020018201604052801561050b5781602001602082028036833780820191505090505b5060019080519060200190610521929190610996565b5060003373ffffffffffffffffffffffffffffffffffffffff164760405161054890610dd8565b60006040518083038185875af1925050503d8060008114610585576040519150601f19603f3d011682016040523d82523d6000602084013e61058a565b606091505b50509050806105ce576040517f08c379a00000000000000000000000000000000000000000000000000000000081526004016105c590610e39565b60405180910390fd5b50565b6802b5e3af16b188000081565b6000600260009054906101000a900473ffffffffffffffffffffffffffffffffffffffff16905090565b6000600360009054906101000a900473ffffffffffffffffffffffffffffffffffffffff16905090565b600260009054906101000a900473ffffffffffffffffffffffffffffffffffffffff1673ffffffffffffffffffffffffffffffffffffffff163373ffffffffffffffffffffffffffffffffffffffff16146106b9576040517f579610db00000000000000000000000000000000000000000000000000000000815260040160405180910390fd5b6000600180548060200260200160405190810160405280929190818152602001828054801561073d57602002820191906000526020600020905b8160009054906101000a900473ffffffffffffffffffffffffffffffffffffffff1673ffffffffffffffffffffffffffffffffffffffff16815260200190600101908083116106f3575b5050505050905060005b81518110156107c157600080600084848151811061076857610767610d00565b5b602002602001015173ffffffffffffffffffffffffffffffffffffffff1673ffffffffffffffffffffffffffffffffffffffff1681526020019081526020016000208190555080806107b990610d2f565b915050610747565b5060003373ffffffffffffffffffffffffffffffffffffffff16476040516107e890610dd8565b60006040518083038185875af1925050503d8060008114610825576040519150601f19603f3d011682016040523d82523d6000602084013e61082a565b606091505b505090508061086e576040517f08c379a000000000000000000000000000000000000000000000000000000000815260040161086590610e39565b60405180910390fd5b5050565b60006001828154811061088857610887610d00565b5b9060005260206000200160009054906101000a900473ffffffffffffffffffffffffffffffffffffffff169050919050565b6000806108c6836108f6565b90506000670de0b6b3a764000085836108df9190610e59565b6108e99190610ee2565b9050809250505092915050565b6000808273ffffffffffffffffffffffffffffffffffffffff1663feaf968c6040518163ffffffff1660e01b815260040160a06040518083038186803b15801561093f57600080fd5b505afa158015610953573d6000803e3d6000fd5b505050506040513d601f19601f820116820180604052508101906109779190610fa0565b5050509150506402540be4008161098e919061101b565b915050919050565b828054828255906000526020600020908101928215610a0f579160200282015b82811115610a0e5782518260006101000a81548173ffffffffffffffffffffffffffffffffffffffff021916908373ffffffffffffffffffffffffffffffffffffffff160217905550916020019190600101906109b6565b5b509050610a1c9190610a20565b5090565b5b80821115610a39576000816000905550600101610a21565b5090565b600080fd5b600073ffffffffffffffffffffffffffffffffffffffff82169050919050565b6000610a6d82610a42565b9050919050565b610a7d81610a62565b8114610a8857600080fd5b50565b600081359050610a9a81610a74565b92915050565b600060208284031215610ab657610ab5610a3d565b5b6000610ac484828501610a8b565b91505092915050565b6000819050919050565b610ae081610acd565b82525050565b6000602082019050610afb6000830184610ad7565b92915050565b6000819050919050565b6000610b26610b21610b1c84610a42565b610b01565b610a42565b9050919050565b6000610b3882610b0b565b9050919050565b6000610b4a82610b2d565b9050919050565b610b5a81610b3f565b82525050565b6000602082019050610b756000830184610b51565b92915050565b610b8481610a62565b82525050565b6000602082019050610b9f6000830184610b7b565b92915050565b610bae81610acd565b8114610bb957600080fd5b50565b600081359050610bcb81610ba5565b92915050565b600060208284031215610be757610be6610a3d565b5b6000610bf584828501610bbc565b91505092915050565b600082825260208201905092915050565b7f596f75206e65656420746f207370656e64206d6f726520455448210000000000600082015250565b6000610c45601b83610bfe565b9150610c5082610c0f565b602082019050919050565b60006020820190508181036000830152610c7481610c38565b9050919050565b7f4e487b7100000000000000000000000000000000000000000000000000000000600052601160045260246000fd5b6000610cb582610acd565b9150610cc083610acd565b9250827fffffffffffffffffffffffffffffffffffffffffffffffffffffffffffffffff03821115610cf557610cf4610c7b565b5b828201905092915050565b7f4e487b7100000000000000000000000000000000000000000000000000000000600052603260045260246000fd5b6000610d3a82610acd565b91507fffffffffffffffffffffffffffffffffffffffffffffffffffffffffffffffff821415610d6d57610d6c610c7b565b5b600182019050919050565b7f4e487b7100000000000000000000000000000000000000000000000000000000600052604160045260246000fd5b600081905092915050565b50565b6000610dc2600083610da7565b9150610dcd82610db2565b600082019050919050565b6000610de382610db5565b9150819050919050565b7f43616c6c206661696c6564000000000000000000000000000000000000000000600082015250565b6000610e23600b83610bfe565b9150610e2e82610ded565b602082019050919050565b60006020820190508181036000830152610e5281610e16565b9050919050565b6000610e6482610acd565b9150610e6f83610acd565b9250817fffffffffffffffffffffffffffffffffffffffffffffffffffffffffffffffff0483118215151615610ea857610ea7610c7b565b5b828202905092915050565b7f4e487b7100000000000000000000000000000000000000000000000000000000600052601260045260246000fd5b6000610eed82610acd565b9150610ef883610acd565b925082610f0857610f07610eb3565b5b828204905092915050565b600069ffffffffffffffffffff82169050919050565b610f3281610f13565b8114610f3d57600080fd5b50565b600081519050610f4f81610f29565b92915050565b6000819050919050565b610f6881610f55565b8114610f7357600080fd5b50565b600081519050610f8581610f5f565b92915050565b600081519050610f9a81610ba5565b92915050565b600080600080600060a08688031215610fbc57610fbb610a3d565b5b6000610fca88828901610f40565b9550506020610fdb88828901610f76565b9450506040610fec88828901610f8b565b9350506060610ffd88828901610f8b565b925050608061100e88828901610f40565b9150509295509295909350565b600061102682610f55565b915061103183610f55565b9250827f7fffffffffffffffffffffffffffffffffffffffffffffffffffffffffffffff04821160008413600084131616156110705761106f610c7b565b5b817f800000000000000000000000000000000000000000000000000000000000000005831260008412600084131616156110ad576110ac610c7b565b5b827f800000000000000000000000000000000000000000000000000000000000000005821260008413600084121616156110ea576110e9610c7b565b5b827f7fffffffffffffffffffffffffffffffffffffffffffffffffffffffffffffff058212600084126000841216161561112757611126610c7b565b5b82820290509291505056fea26469706673582212201293534392ee480037d99eaf82602455503606fe5d79690989eb6ab46f222ce364736f6c63430008080033",
  "devdoc": {
    "kind": "dev",
    "methods": {},
    "version": 1
  },
  "userdoc": {
    "kind": "user",
    "methods": {},
    "version": 1
  },
  "storageLayout": {
    "storage": [
      {
        "astId": 58,
        "contract": "contracts/FundMe.sol:FundMe",
        "label": "s_addressToAmountFunded",
        "offset": 0,
        "slot": "0",
        "type": "t_mapping(t_address,t_uint256)"
      },
      {
        "astId": 61,
        "contract": "contracts/FundMe.sol:FundMe",
        "label": "s_funders",
        "offset": 0,
        "slot": "1",
        "type": "t_array(t_address)dyn_storage"
      },
      {
        "astId": 63,
        "contract": "contracts/FundMe.sol:FundMe",
        "label": "i_owner",
        "offset": 0,
        "slot": "2",
        "type": "t_address"
      },
      {
        "astId": 73,
        "contract": "contracts/FundMe.sol:FundMe",
        "label": "s_priceFeed",
        "offset": 0,
        "slot": "3",
        "type": "t_contract(AggregatorV3Interface)45"
      }
    ],
    "types": {
      "t_address": {
        "encoding": "inplace",
        "label": "address",
        "numberOfBytes": "20"
      },
      "t_array(t_address)dyn_storage": {
        "base": "t_address",
        "encoding": "dynamic_array",
        "label": "address[]",
        "numberOfBytes": "32"
      },
      "t_contract(AggregatorV3Interface)45": {
        "encoding": "inplace",
        "label": "contract AggregatorV3Interface",
        "numberOfBytes": "20"
      },
      "t_mapping(t_address,t_uint256)": {
        "encoding": "mapping",
        "key": "t_address",
        "label": "mapping(address => uint256)",
        "numberOfBytes": "32",
        "value": "t_uint256"
      },
      "t_uint256": {
        "encoding": "inplace",
        "label": "uint256",
        "numberOfBytes": "32"
      }
    }
  }
}